:020000020000FC
:040000000EC099C0D5
:10001C0024C00FE50DBF02E00EBF0FEF04BB00E0E4
:10002C0001BB0FEF02BB0DEE06B900E207B97894E5
:10003C0040EC4BBF4AE045BF78945527662700E457
:10004C00402E00E4302E00E4202E00E4102E00E4BC
:10005C00002E000005BA0000FCCF14B125B12A30E7
:10006C0008F454C0503009F018952F3F09F005C022
:10007C00702C01E0002E53951895273E09F005C011
:10008C00702C02E0002E53951895243D09F005C004
:10009C00702C04E0002E53951895243C09F005C0F3
:1000AC00702C08E0002E53951895263B09F005C0DE
:1000BC00702C00E1002E539518952A3A09F005C0D2
:1000CC00702C00E2002E539518952F3909F005C0BD
:1000DC00702C00E4002E53951895263909F005C0B4
:1000EC00702C00E8002E539518952D3809F005C09A
:1000FC00702C00EC002E53951895263809F005C08D
:10010C00702C0FEF002E539518951895513009F05F
:10011C0018955527603039F000C0542C432C322CE4
:10012C00212C172C18956395189505BA22D0012C03
:10013C00122C232C342C452C05BA1BD0012C122C40
:10014C00232C342C452C05BA14D0012C122C232C26
:10015C00342C452C05BA0DD0012C122C232C342C0C
:10016C00452C05BA06D0012C122C232C342C452CF2
:10017C00189579E08CEB94EC9A95F1F78A95D9F770
:08018C007A95C1F70000089507
:00000001FF
