:020000020000FC
:0200000009C035
:1000120089C02FE52DBF22E02EBF2FEF24BB2ABBC4
:1000220027BB20E021BB2FEF22BB21E023BF22E030
:100032002EBD25E029BF21EC2AE025BF20EE2BBFF3
:1000420078940FE3702E0DE7602E00E5502E07E73F
:10005200402E0EE5302E0FE3202E0DE6102E00E48A
:10006200002EFF27859B05C0869B1EC0879B37C03D
:10007200F9CF0FE3702E0DE7602E00E5502E07E753
:10008200402E0EE5302E0FE3202E0DE6102E00E45A
:10009200002EC09A31E040D03A95E9F7C09831E09D
:1000A2003BD03A95E9F7DECF07E6702E0FE3602EDC
:1000B2000DE7502E00E5402E07E7302E0EE5202EEC
:1000C2000FE3102E0DE6002EC09A34E125D03A95AA
:1000D200E9F7C09834E120D03A95E9F7C3CF06E0BA
:1000E200702E0FE7602E0FE3502E0DE7402E00E535
:1000F200302E07E7202E0EE5102E0FE3002E34E1FE
:10010200C09A0AD0C09808D03A95D1F7C09834E185
:1001120003D03A95E9F7A6CF46EA4A95F1F70000EF
:1001220000000895FBBBE395110F11F411E0EE27D7
:0C013200109515BB109520812BBB189573
:00000001FF
