:020000020000FC
:020000000EC030
:02001200BDC06F
:10001C0022C00FE50DBF02E00EBF0FEF04BB01BB0A
:10002C000DEE06B900E207B9789401E003BF01E0D8
:10003C0009BF01EC05BF00E00BBF7894552766277C
:10004C0000E4302E00E4202E00E4102E00E4002EFC
:10005C0000000000FDCF14B125B12A3008F484C093
:10006C00503009F01895213D09F005C0702C06E0C0
:10007C00002E539518952D3909F005C0702C0BE501
:10008C00002E539518952B3709F005C0702C0FE4F2
:10009C00002E53951895223C09F005C0702C06E6ED
:1000AC00002E53951895253909F005C0702C0DEECE
:1000BC00002E53951895263709F005C0702C0DEFBE
:1000CC00002E53951895233B09F005C0702C07E8BA
:1000DC00002E539518952C3809F005C0702C0FEF95
:1000EC00002E53951895203709F005C0702C0FEE93
:1000FC00002E53951895263809F005C0702C0FEB7F
:10010C00002E539518952A3A09F005C0702C00E47E
:10011C00002E539518952B3609F005C0702C06E46B
:10012C00002E53951895293609F005C0702C07EF51
:10013C00002E53951895273609F005C0702C0CEF3E
:10014C00002E53951895213609F005C0702C08ED3A
:10015C00002E539518952F3509F005C0702C0EED17
:10016C00002E539518951895513009F01895552770
:10017C00603029F000C0322C212C172C1895639577
:10018C001895F2BBE395330F11F431E0EE2730955F
:0A019C0035BB3095408142BB189539
:00000001FF
