:020000020000FC
:0400000009C02CC047
:1000100034C046C00FE50DBF02E00EBF0FEF0ABBB4
:1000200004BB00E007BB01BB0FEF08BB02BB04E051
:1000300003BF0DEF02BF04E00EBD03EB0DBD05EBEA
:100040000CBD01E009BF02E005BF00E40BBF7894DE
:10005000FF2711272227332715BBFECF30FF01C012
:100060000BC020FF01C004C01127D89A4AD01895B0
:100070001127D89A46D01895189530FF01C00CC0AA
:1000800020FF01C004C01127D89844D0189511272B
:10009000D99AD8983FD018951127D9983BD0189560
:1000A00030FF01C02DC020FF01C015C0D89B12C079
:1000B00000C0163060F400C0B09B01C004C015BB86
:1000C000A89B1395189515BBA8991395189523957A
:1000D000D4CF18951895D89B12C000C0163060F484
:1000E00000C0B09B01C004C015BBA89B1395189518
:1000F00015BBA899139518953395BFCF18951895EA
:10010000189504E00EBD03EB0DBD05EB0CBD05E03D
:0A01100009BF089501E009BF18952A
:00000001FF
