:020000020000FC
:0600000012C05AC06AC0E4
:0400100040C033C0F9
:1000240040C02FE52DBF22E02EBF2FEF24BB2ABBFB
:1000340020E021BB27BB21E023BF22E02EBD25E029
:1000440029BF21EC2AE025BF20EE2BBF789409E7D5
:10005400702E0DE6602E09E3502E0FE3402E07E3C9
:10006400302E07E3202E0BE5102E0DE6002EFF2781
:1000740000000000FDCFFBBBE395110F11F411E06C
:10008400EE27109515BB109520812BBB1895872C56
:10009400762C652C542C432C322C212C102C082C1F
:1000A40018952F931F9329B714E0212729BF1F9177
:1000B4002F91189500E4702E06E0602E03E7502E71
:1000C40007E3402E00E4302E07E3202E07E3102E32
:1000D40006E7002E189500E4702E0EE3602E03E769
:1000E400502E06E0402E06E0302E08E7202E07E7CB
:0800F400102E00E4002E189507
:00000001FF
