:020000020000FC
:1000000002C037C047C02FE52DBF22E02EBF2FEF23
:1000100024BB2ABB20E021BB2FEF28BB20EC2BBF49
:100020002AE025BF789409E7702E0DE6602E09E3DB
:10003000502E0FE3402E07E3302E07E3202E0BE572
:10004000102E0DE6002EFF27EE2711E0109515BBB0
:10005000109521912BBB04D0FBBB110FB8F7F4CF47
:1000600043E05DED5A95F1F74A95D9F7000000009D
:10007000089500E4702E06E0602E03E7502E07E39B
:10008000402E00E4302E07E3202E07E3102E06E773
:10009000002E189500E4702E0EE3602E03E7502E1C
:1000A00006E0402E06E0302E08E7202E07E7102E4F
:0600B00000E4002E18958B
:00000001FF
