:020000020000FC
:1000000011271EBF19E61DBF10E11F9310E01F93BB
:1000100018E71F9312E01F9312E11F9319E91F9332
:1000200010E31F9314E21F9319EF1F9310E41F9323
:100030001FE51DBF12E01EBF1FEF1ABB14BB18BB8C
:10004000002705BB0ED01BBB10D016B3107822F0D2
:1000500003950A30B1F7F4CF0A950AF0F2CF09E020
:10006000F0CFE0E6E00F1081089547EA52E068EF34
:100070006A95F1F75A95D9F74A95C1F700000895A6
:00000001FF
