:020000020000FC
:0200000009C035
:1000120085C02FE52DBF22E02EBF2FEF24BB2ABBC8
:1000220027BB20E021BB21E023BF22E02EBD25E03B
:1000320029BF21EC2AE025BF20EE2BBF78940FE3E5
:10004200702E0DE7602E00E5502E07E7402E0EE5DC
:10005200302E0FE3202E0DE6102E00E4002EFF2797
:10006200859B05C0869B1EC0879B37C0F9CF0FE3D7
:10007200702E0DE7602E00E5502E07E7402E0EE5AC
:10008200302E0FE3202E0DE6102E00E4002EC09A33
:1000920032E03ED03A95E9F7C09836E239D03A9547
:1000A200E9F7DECF07E6702E0FE3602E0DE7502E44
:1000B20000E5402E07E7302E0EE5202E0FE3102E2E
:1000C2000DE6002EC09A33E023D03A95E9F7C098A6
:1000D20035E21ED03A95E9F7C3CF06E0702E0FE75E
:1000E200602E0FE3502E0DE7402E00E5302E07E77D
:1000F200202E0EE5102E0FE3002EC09A34E008D019
:100102003A95E9F7C09834E203D03A95E9F7A8CFD7
:1001120046EA4A95F1F7000000000895FBBBE3951B
:10012200110F11F411E0EE27109515BB10952081E7
:040132002BBB189536
:00000001FF
